:100000000C942A000C9434000C9434000C943400AA
:100010000C9434000C9434000C9434000C94340090
:100020000C9434000C9434000C9434000C94340080
:100030000C9434000C9434000C9434000C94340070
:100040000C9434000C9434000C9434000C94340060
:100050000C94340011241FBECFE5D8E0DEBFCDBF25
:100060000E9442000C945A000C9400009C010097DE
:1000700041F04AEF50E0CA010197F1F721503040BA
:10008000D1F70895CF93DF93E1E3F0E080818160C1
:100090008083C2E3D0E088818160888384EF91E02F
:1000A0000E94360088818E7F888384EF91E00E94D1
:0800B0003600F1CFF894FFCFF8
:00000001FF
